:100000000C9435000C94AA020C9483020C945D00AD
:100010000C945D000C945D000C945D000C945D00EC
:100020000C945D000C945D000C945D000C945D00DC
:100030000C945D000C945D000C945D000C945D00CC
:100040000C94E1010C945D000C9451020C942B0271
:100050000C945D000C945D000C945D000C945D00AC
:100060000C945D000C945D00FE0311241FBECFEFC5
:10007000D8E0DEBFCDBF21E0A6E1B1E001C01D9216
:10008000AF3DB207E1F711E0A0E0B1E0E0E7F8E052
:1000900002C005900D92A631B107D9F710E0C5E373
:1000A000D0E004C02197FE010E942B04C433D10785
:1000B000C9F70E94D1020C9436040C9400001092EF
:1000C0001E0110921D018091D501882339F0809185
:1000D0002C0180931C018CE291E006C080911F01ED
:1000E00080931C018FE191E090931B0180931A0192
:1000F00080911C0180788093190110922B0110923D
:10010000180110921701089580911901882311F0A8
:100110005C9801C05C9A80911D018C3030F5809113
:100120001C01880F80931C0180911E018F5F8093BA
:100130001E0180911E01883091F410921E01809161
:100140001D018F5F80931D0180911D01E0911A01B7
:10015000F0911B01E80FF11D808180931C018091BB
:100160001C0180788093190102C0109219018091BE
:100170002B018F5F80932B010895CF92DF92EF9236
:10018000FF920F931F93CF93DF936C017A018B0142
:10019000C0E0D0E0CE15DF0589F0D8016D918D016A
:1001A000D601ED91FC910190F081E02DC6010995F9
:1001B000892B11F47E0102C02196ECCFC701DF919B
:1001C000CF911F910F91FF90EF90DF90CF90089506
:1001D000089580E090E00895FC01538D448D252F13
:1001E00030E0842F90E0821B930B541710F0CF96D1
:1001F000089501970895FC01918D828D981761F003
:10020000828DDF01A80FB11D5D968C91928D9F5F4D
:100210009F73928F90E008958FEF9FEF0895FC01F8
:10022000918D828D981731F0828DE80FF11D858DAB
:1002300090E008958FEF9FEF0895FC01918D228D3E
:10024000892F90E0805C9F4F821B91098F739927C3
:10025000089588E391E00E941D0121E0892B09F4B3
:1002600020E0822F0895FC01848DDF01A80FB11DCD
:10027000A35ABF4F2C91848D90E001968F739927DC
:10028000848FA689B7892C93A089B1898C918064C9
:100290008C93938D848D981306C00288F389E02D8A
:1002A00080818F7D80830895EF92FF920F931F933B
:1002B000CF93DF93EC0181E0888F9B8D8C8D981319
:1002C00005C0E889F989808185FD24C0F62E0B8D53
:1002D00010E00F5F1F4F0F731127E02E8C8DE81277
:1002E0000CC00FB607FCFACFE889F989808185FF39
:1002F000F5CFCE010E943301F1CF8B8DFE01E80FC7
:10030000F11DE35AFF4FF0820B8FEA89FB89808150
:10031000806207C0EE89FF896083E889F98980815E
:100320008064808381E090E0DF91CF911F910F91F5
:10033000FF90EF900895CF93DF93EC01888D882391
:10034000C9F0EA89FB89808185FD05C0A889B98942
:100350008C9186FD0FC00FB607FCF5CF808185FF1D
:10036000F2CFA889B9898C9185FFEDCFCE010E948B
:100370003301E7CFDF91CF91089580E090E0892BA2
:1003800029F00E94290181110C940000089508951C
:10039000FC011082818181708C608183818190E079
:1003A0001282DF0113969F01245F3F4F4D91840F0E
:1003B000911DA217B307D1F78195828308950E94FA
:1003C00031041F920F920FB60F9211242F933F9377
:1003D0008F939F93AF93BF938091DB019091DC014A
:1003E000A091DD01B091DE013091DA0123E0230F0D
:1003F0002D3720F40196A11DB11D05C026E8230F5D
:100400000296A11DB11D2093DA018093DB01909328
:10041000DC01A093DD01B093DE018091D6019091C3
:10042000D701A091D801B091D9010196A11DB11DAC
:100430008093D6019093D701A093D801B093D901AE
:10044000BF91AF919F918F913F912F910F900FBED0
:100450000F901F9018951F920F920FB60F921124B4
:100460002F933F934F935F936F937F938F939F93BC
:10047000AF93BF93EF93FF9388E391E00E94330122
:10048000FF91EF91BF91AF919F918F917F916F916C
:100490005F914F913F912F910F900FBE0F901F9042
:1004A00018951F920F920FB60F9211242F938F93CE
:1004B0009F93EF93FF93E0914801F0914901808170
:1004C000E0914E01F0914F0182FD12C09081809128
:1004D00051018F5F8F7320915201821751F0E0918B
:1004E0005101F0E0E85CFE4F958F8093510101C00F
:1004F0008081FF91EF919F918F912F910F900FBE6F
:100500000F901F9018951F920F920FB60F92112403
:100510002F933F934F935F936F937F938F939F930B
:10052000AF93BF93EF93FF93E0910201F09103012A
:100530000995FF91EF91BF91AF919F918F917F911D
:100540006F915F914F913F912F910F900FBE0F9040
:100550001F9018951F920F920FB60F9211242F9390
:100560003F934F935F936F937F938F939F93AF933B
:10057000BF93EF93FF93E0910001F0910101099582
:10058000FF91EF91BF91AF919F918F917F916F916B
:100590005F914F913F912F910F900FBE0F901F9041
:1005A0001895789484B5826084BD84B5816084BDDB
:1005B00085B5826085BD85B5816085BD80916E0001
:1005C000816080936E001092810080918100826032
:1005D000809381008091810081608093810080916F
:1005E00080008160809380008091B100846080935E
:1005F000B1008091B00081608093B00080917A005A
:10060000846080937A0080917A00826080937A007F
:1006100080917A00816080937A0080917A0080686E
:1006200080937A001092C100E0914801F091490155
:1006300082E08083E0914401F09145011082E091D5
:100640004601F091470180E1808310925001E091D2
:100650004C01F0914D0186E08083E0914A01F091D8
:100660004B01808180618083E0914A01F0914B01D0
:10067000808188608083E0914A01F0914B01808104
:1006800080688083E0914A01F0914B0180818F7DE9
:1006900080838AE090E0A0E0B0E080933C019093FA
:1006A0003D01A0933E01B0933F01549A259A53987F
:1006B000529880E090E0FC01E45DFE4F1082FC0166
:1006C000E15EFE4F108201968C309105A1F78CE21D
:1006D00091E00E94C8018FE191E00E94C801F89466
:1006E0008FE590E090930101809300018091690073
:1006F0008C7F826080936900E89A84E890E0909310
:10070000030180930201809169008C6080936900ED
:10071000E99A7894FF24F3948091D5018111FCCF5C
:100720002D9A88E391E00E941D010C97D4F32D9837
:100730000CE211E0C0E0D0E02FB7F8948091DB012B
:100740009091DC01A091DD01B091DE012FBF80937B
:10075000400190934101A0934201B0934301E09185
:100760003801F09139010284F385E02D88E391E0AE
:10077000099597FD08C0F80181938F012196CC302F
:10078000D105D1F624C02FB7F8948091DB01909168
:10079000DC01A091DD01B091DE012FBF409140014D
:1007A000509141016091420170914301841B950B6E
:1007B000A60BB70B40913C0150913D0160913E0169
:1007C00070913F0184179507A607B70740F22C9751
:1007D00091F4F092D5014CE050E06CE271E088E3D6
:1007E00091E00E94BD0080912B018036E0F31092D1
:1007F0002B011092D5010E94BD018ECFE8E3F1E0FC
:100800001382128288EE93E0A0E0B0E084839583A7
:10081000A683B78388E091E09183808385EC90E0A4
:100820009587848784EC90E09787868780EC90E0BA
:10083000918B808B81EC90E0938B828B82EC90E0AB
:10084000958B848B86EC90E0978B868B118E128E25
:10085000138E148E0895EE0FFF1F0590F491E02D76
:10086000099481E090E0F8940C943604F894FFCF5A
:10087000C701C701000000005401BD00EC009B014E
:060880001D01FB000F0149
:00000001FF
